:020000040800F2
:1000000000500020093A0008B5020008B7020008B5
:10001000B9020008BB020008BD0200080000000091
:10002000000000000000000000000000BF02000807
:10003000C102000800000000C3020008C502000859
:10004000513A0008513A0008513A0008513A000864
:10005000513A0008513A0008513A0008513A000854
:10006000513A0008513A0008513A0008513A000844
:10007000513A0008513A0008513A0008513A000834
:10008000513A0008513A0008513A0008513A000824
:10009000CD020008513A0008513A0008513A0008D0
:1000A000513A0008513A0008513A0008513A000804
:1000B000513A0008513A0008513A0008513A0008F4
:1000C000513A0008513A0008513A0008513A0008E4
:1000D000513A0008513A0008513A0008513A0008D4
:1000E000513A0008513A0008513A00080000000057
:1000F0000000000000000000000000000000000000
:0C01000000000000000000005FF808F1A3
:10010C000348044B834202D0034B03B1184770479A
:10011C006002002060020020000000000548064B31
:10012C001B1AD90F01EBA301491002D0034B03B1E9
:10013C001847704760020020600200200000000099
:10014C0010B5064C237843B9FFF7DAFF044B13B113
:10015C000448AFF300800123237010BD600200201F
:10016C0000000000C83A000808B5054B1BB1054952
:10017C000548AFF30080BDE80840FFF7CFBF00BFD4
:10018C000000000064020020C83A000872B6FEE7C6
:10019C0000B595B0282200210DEB020003F086FC7F
:1001AC0000230593069307930893099301930293F5
:1001BC000393049301220A924FF480330B930E9213
:1001CC000222119212934FF4E01313930AA802F037
:1001DC007FFAC0B90F2305930221069100230793E0
:1001EC004FF480620892099305A802F0A3FC60B951
:1001FC00102301930023049301A802F051FD30B9A0
:10020C0015B05DF804FBFFF7C1FFFFF7BFFFFFF769
:10021C00BDFF000010B5ADF54E5D82B002F00AFADC
:10022C00FFF7B6FF00F028F800F074F84FF44E52C8
:10023C000F4902A803F02CFC01AB00241C7041F206
:10024C00883002F01BFA0BE0402202AB03EB841166
:10025C00084803F0BFFB4FF4FA7002F00FFA0134B8
:10026C00CB2CF1D9402201A9024803F0B3FBF7E7EC
:10027C00E03A00087C02002082B00A4B9A6942F0F6
:10028C0020029A619A6902F020020092009A9A69FF
:10029C0042F004029A619B6903F004030193019BF1
:1002AC0002B0704700100240FEE7FEE7FEE7FEE7F3
:1002BC00FEE770477047704708B502F0CDF908BDEE
:1002CC0008B5024800F0E0FF08BD00BF540700204D
:1002DC0082B00E4B9A6942F001029A619A6902F05F
:1002EC0001020092009ADA6942F08052DA61DB690D
:1002FC0003F080530193019B054A536823F0E0639C
:10030C0043F00073536002B0704700BF001002400E
:10031C000000014008B500220B490C4802F0C5FD55
:10032C0048B90B49094802F0D7FD38B9074802F023
:10033C00DAFD30B908BDFFF729FFF2E7FFF726FF1A
:10034C00F4E7FFF723FFF5E7340000207C020020E0
:10035C002802002012230B80004870472000002048
:10036C0004230B80004870471C000020002393429C
:10037C001ED200B510E00CF1370C01F813C00001CF
:10038C004FEA430C0CF1010C4FF0000E01F80CE09D
:10039C000133DBB2934209D24FEA107CB0F1204F0B
:1003AC00E9D20CF1300C01F813C0E8E75DF804FB5E
:1003BC007047000038B50B4BD3F8E807D3F8EC477F
:1003CC00D3F8F037C01800D138BD074D08222946A4
:1003DC00FFF7CCFF042205F110012046FFF7C6FF02
:1003EC00F2E700BF00F0FF1F0200002008B51A233F
:1003FC000B80FFF7DFFF014808BD00BF00000020A5
:10040C0008B50A4628B90549054803F0C4F903485C
:10041C0008BD0249024803F0BEF9F8E74005002088
:10042C00606E000810B50A46034C2146034803F0E1
:10043C00B2F9204610BD00BF400500206C6E0008CC
:10044C0008B50A4628B90549054803F0A4F903483C
:10045C0008BD0249024803F09EF9F8E74005002068
:10046C00786E000808B50A4628B90549054803F016
:10047C0092F9034808BD0249024803F08CF9F8E7E9
:10048C0040050020846E0008022805D8DFE800F043
:10049C0005040200012070470220704702680E4BD1
:1004AC009A4200D0704700B583B003F5DA33DA69AD
:1004BC0042F40002DA61DB6903F400030193019B4F
:1004CC0000221146142002F0BDFC142002F0CAFCDC
:1004DC0003B05DF804FB00BF005C004008B500F5FC
:1004EC002C71D0F8EC0202F016FD08BD08B501EB3A
:1004FC00810300EBC303D3F87C21D0F8EC0202F0AB
:10050C0037FD08BD08B501EB810300EBC303DA6BC3
:10051C00D0F8EC0202F072FD08BD08B5D0F8EC0280
:10052C0002F013FE08BD10B504468368022B09D1F6
:10053C000121D4F8EC0202F0F1FDD4F8EC0202F047
:10054C00C5FD10BDFFF722FEF2E7000010B5044612
:10055C00D0F8EC0202F0E5FDA36923B1024A13695D
:10056C0043F00603136110BD00ED00E008B5D0F8B0
:10057C00EC0202F0DFFD08BD10B504461648C0F8C9
:10058C00EC42C4F8C002154B0360082343600223FD
:10059C00836000238361C361036200F00FF9B8B973
:1005AC00182300221146D4F8C00201F06BF858232E
:1005BC0000228021D4F8C00201F064F84FF480735B
:1005CC0000228221D4F8C00201F05CF8002010BD9A
:1005DC00FFF7DCFDE4E700BF54070020005C00409F
:1005EC0008B5D0F8C00200F071F9FFF74DFF08BD57
:1005FC0008B594461A466346D0F8C00200F01CFFBA
:10060C00FFF742FF08BD08B5D0F8C00200F052FF5A
:10061C00FFF73AFF08BD08B5D0F8C00200F0BBFFE9
:10062C00FFF732FF08BD08B5D0F8C00200F0EFFFAD
:10063C00FFF72AFF08BDD0F8C03211F0800F08D1A7
:10064C0001F07F0101EB810103EBC10393F86A0117
:10065C00704701F07F01013101EB810103EBC10314
:10066C009878704708B5D0F8C00200F0F9FDFFF794
:10067C000BFF08BD08B5D0F8C00200F06AFFFFF709
:10068C0003FF08BD08B5D0F8C00200F045FFFFF726
:10069C00FBFE08BD004870474007002070477047BC
:1006AC0038B512F4804F44D00468B4F850309BB283
:1006BC0091F800C003EBCC03023304EB4304B4F811
:1006CC000044C4F309048B69A34228D31B1B8B6120
:1006DC008B697BB9056835F82C309BB223F48043C9
:1006EC0023F0700383F4005343F4004343F080037E
:1006FC0025F82C3012F0400F0ED002680D7832F82D
:10070C0025309BB223F4E04323F0700343F4004301
:10071C0043F0C00322F8253024B9204638BD00230D
:10072C008B61D5E723460A894969006801F043FFCC
:10073C00F3E70468B4F850309BB291F800C003EBB7
:10074C00CC03063304EB4304B4F80044C4F30904AB
:10075C008B69A3422FD31B1B8B618B697BB90568FB
:10076C0035F82C309BB223F4804323F0700383F4D0
:10077C00005343F4004343F0800325F82C3012F06F
:10078C00400F0FD1026891F800C032F82C309BB2A8
:10079C0023F4E04323F0700343F4004343F0C0031D
:1007AC0022F82C30002CB8D023464A8949690068BD
:1007BC0001F001FFB1E700238B61CEE770B586B085
:1007CC00002800F08180044690F8A932EBB1032395
:1007DC0084F8A932206800F081FF254655F8106B8B
:1007EC00EC460FCDACE80F002B68CCF80030231D85
:1007FC000ECB304600F062FF054658B1022384F858
:10080C00A9320125284606B070BD80F8A832FFF742
:10081C0045FEDCE70021206800F06AFF2B4616E05D
:10082C005A1C02EB820104EBC1010120487002EB5F
:10083C00820104F8313004EBC1000021C17003EBDC
:10084C00830004EBC0008163C1630164D3B26168AF
:10085C008B42E5D316E005EB850304EBC3030022C2
:10086C0083F8692183F8685183F86B21C3F87821E8
:10087C00C3F87C2105EB850304EBC303C3F880218B
:10088C000135EDB2A942E6D8254655F8106BEC4679
:10089C000FCDACE80F002B68CCF80030231D0ECB2D
:1008AC00304600F027FF054620B1022384F8A93218
:1008BC000125A7E7002384F82430012384F8A9320A
:1008CC00206801F076FA9DE701259BE738B590F892
:1008DC00A832012B11D00446012580F8A8520068DB
:1008EC0000F0F3FE29462046FFF7D9FE206801F000
:1008FC005EFA002084F8A80238BD0220FCE770B52F
:10090C0005460C46164612F0400F00F00E810268A8
:10091C00B2F850309BB2097803EBC103023302EBFF
:10092C004302B2F80024C2F30902A36993424ED9E0
:10093C009B1AA361A369002B66D16378002B49D164
:10094C002B68B3F8502092B2134403EB0113B3F8A5
:10095C000424C2F30902A3F80424B3F804246FEAB4
:10096C0042426FEA524292B2A3F804242B68627896
:10097C00002A3CD1B3F8502092B21344227803EBF6
:10098C000213B3F80C24C2F30902A3F80C24B3F835
:10099C000C246FEA42426FEA524292B2A3F80C2442
:1009AC0021782846FFF7AEFD16F4804F41D02A6817
:1009BC00217832F821309BB223F4E04323F070030A
:1009CC0043F4404343F0800322F8213031E000230C
:1009DC00A361AFE7012BC9D12B68B3F8502092B2B9
:1009EC00134403EB01130022A3F80424BEE7012AED
:1009FC00D6D1B3F8502092B21344227803EB0213F1
:100A0C000022A3F80C24CBE716F4804F0DD02868F5
:100A1C0030F821309BB223F4E04323F0700343F40D
:100A2C00404343F0800320F8213094F82430012B0C
:100A3C0012D02A68217832F821309BB223F4E0439B
:100A4C0023F0400383F0300343F4004343F080036E
:100A5C0022F82130002070BD636913446361E3699F
:100A6C001344E361216A2369994224D3C91A216290
:100A7C006278002A44D12A68B2F8501089B20A442C
:100A8C00217802EB0112B2F80414C1F30901A2F8A7
:100A9C0004143E2B1BD9580913F01F0F00D1013839
:100AAC00B2F8041489B2800280B2014341F40041CF
:100ABC00A2F8041426E021B9002384F8243013464C
:100ACC00D6E7002384F8243023620B46D0E74BB9D9
:100ADC00B2F804146FEA41416FEA514189B2A2F8AD
:100AEC0004140FE0590813F0010F00D00131B2F8D3
:100AFC00040480B2890289B20143A2F8041401E013
:100B0C00012A06D09BB222896169286801F059F943
:100B1C008FE72A68B2F8501089B20A44217802EBA8
:100B2C00011299B2A2F80414ECE70268B2F8503042
:100B3C009BB2097803EBC103063302EB4302B2F814
:100B4C000024C2F30902A36993424FD39B1AA361F9
:100B5C00A369002B67D16378002B4AD12B68B3F8BB
:100B6C00502092B2134403EB0113B3F80424C2F3E4
:100B7C000902A3F80424B3F804246FEA42426FEA92
:100B8C00524292B2A3F804242B686278002A3DD119
:100B9C00B3F8502092B21344227803EB0213B3F84B
:100BAC000C24C2F30902A3F80C24B3F80C246FEA4A
:100BBC0042426FEA524292B2A3F80C2421782846A2
:100BCC00FFF7A0FC16F4804F7FF433AF2A6821782E
:100BDC0032F821309BB223F4E04323F0700343F44A
:100BEC00404343F0800322F8213022E70023A36125
:100BFC00AEE7012BC8D12B68B3F8502092B2134446
:100C0C0003EB01130022A3F80424BDE7012AD5D17C
:100C1C00B3F8502092B21344227803EB0213002253
:100C2C00A3F80C24CAE716F4804F0DD1286830F8CD
:100C3C0021309BB223F4E04323F0700343F4404390
:100C4C0043F0800320F8213094F82430012B7FF4FA
:100C5C00F0AE636913446361E3691344E361216A91
:100C6C002369994224D3C91A21622A686178002920
:100C7C0043D1B2F8501089B20A44217802EB011228
:100C8C00B2F80C14C1F30901A2F80C143E2B1BD9B9
:100C9C00580913F01F0F00D10138B2F80C1489B2A7
:100CAC00800280B2014341F40041A2F80C1426E00A
:100CBC0021B9002384F824301346D6E7002323629D
:100CCC0084F824300B46D0E74BB9B2F80C146FEA19
:100CDC0041416FEA514189B2A2F80C140FE0590856
:100CEC0013F0010F00D00131B2F80C0480B289026C
:100CFC0089B20143A2F80C1401E0012906D09BB281
:100D0C0062896169286801F05CF892E6B2F85010CB
:100D1C0089B20A44217802EB011299B2A2F80C14A0
:100D2C00EDE72DE9F04105462868B0F8443013F49E
:100D3C00004F00F09282B0F84440A3B214F00F04BC
:100D4C0040F0E28013F0100F6BD003889AB213F4CA
:100D5C00006F40F09D8012F4004FE5D0038823F023
:100D6C0070031B051B0D43F0800303802868B0F84B
:100D7C0050309BB295F8682103EBC203063300EBAD
:100D8C004303B3F80034C3F30903C5F884318BB1C2
:100D9C00D5F87C1171B1B5F86E2101F00CFCD5F8C9
:100DAC007C31D5F884211344C5F87C3100212846C8
:100DBC00FFF79CFB2A68138899B213F4006FB3D128
:100DCC0001F44051B1F5405FAED0B2F850309BB257
:100DDC001A44B2F80C34C3F30903A2F80C34D5F856
:100DEC0078313E2B77D9590913F01F0F00D10139F7
:100DFC00B2F80C349BB2890289B20B4343F4004322
:100E0C00A2F80C342A6813889BB223F4804323F095
:100E1C00700383F4405343F4004343F08003138086
:100E2C0082E703889BB223F4E14323F070036FEA5B
:100E3C0043436FEA53439BB203802A68B2F85030A5
:100E4C009BB295F8281003EBC103023302EB43026B
:100E5C00B2F80034C3F309036B64EA6B1A44EA6317
:100E6C0000212846FFF74EFB95F82430002B3FF469
:100E7C005BAF2B6C002B7FF457AF95F824302A68AE
:100E8C0043F08003A2F84C30002385F824304BE764
:100E9C00B0F850309BB295F8682103EBC2030633CF
:100EAC0000EB4303B3F80034C3F30903C5F88431F2
:100EBC00B5F86E2105F52C7101F07DFB2A681388BD
:100ECC0023F070031B051B0D43F080031380284691
:100EDC00FFF704FB28E74BB9B2F80C346FEA434335
:100EEC006FEA53439BB2A2F80C348BE7590813F00A
:100EFC00010F00D00131B2F80C3498B28B029BB2C6
:100F0C000343A2F80C347DE730F824309EB213F47E
:100F1C00004F4CD116F0800F3FF406AF621C02EB71
:100F2C00820105EBC101286830F824309BB223F410
:100F3C00E14323F070036FEA43436FEA53439BB2E0
:100F4C0020F82430CB78012B00F0F28016F4807F4F
:100F5C0040F07E812868B0F850309BB2621C02EBE6
:100F6C00820215F8326003EBC603023300EB430335
:100F7C00B3F80034C3F3090304EB840205EBC2029B
:100F8C00126C9A4240F24C8104EB840705EBC707C4
:100F9C00D21A3A6404EB840205EBC202126C002AEA
:100FAC0040F0458131462846FFF7ACFABCE630F8F4
:100FBC00243023F070031B051B0D43F0800320F835
:100FCC00243004EB8401C90001F5B47105EB010870
:100FDC0004EB840305EBC30393F87431002B42D16B
:100FEC002868B0F850309BB204EB840205EBC202C7
:100FFC0092F8682103EBC203063300EB4303B3F80A
:10100C000074C7F3090717BB04EB840305EBC30398
:10101C00D3F884213A44C3F88421D3F87C213A4490
:10102C00C3F87C21D3F880313BB104EB840305EB8E
:10103C00C303D3F878319F4275D204EB840305EBDC
:10104C00C30393F868112846FFF750FA62E704EBE4
:10105C00840105EBC1013B46B1F86E21D1F87C113E
:10106C0001F0A9FAD0E704EB840305EBC30393F872
:10107C006B31022B35D0296804EB840205EBC202DC
:10108C0092F8680131F820309BB223F4E04323F04E
:10109C00700343F4004343F0C00321F82030286868
:1010AC0092F8682130F8223013F4804F20D0B0F839
:1010BC0050309BB203EBC203023300EB4303B3F893
:1010CC000074C7F30907002F9ED004EB840105EBD5
:1010DC00C1013B46B1F87021D1F87C1101F06BFADB
:1010EC0092E7324641462846FFF7DAFA07468BE785
:1010FC00B0F850309BB203EBC203063300EB430352
:10110C00B3F80074C7F30907002F3FF47DAF04EB6D
:10111C00840105EBC1013B46B1F87221D1F87C1179
:10112C0001F049FA70E74146286800F05DFEF1E6EF
:10113C0004EB840305EBC30300221A6493F83430E8
:10114C00FBB116F0400F37D04B781BBB2B68B3F8B4
:10115C00502092B21344621C02EB820215F832202A
:10116C0003EB0213B3F80424C2F30902A3F804241A
:10117C00B3F804246FEA42426FEA524292B2A3F8E7
:10118C000424013404EB840415F834102846FFF7CA
:10119C00B9F9C9E5012BF4D12B68B3F8502092B200
:1011AC001344621C02EB820215F8322003EB02138B
:1011BC000022A3F80424E4E72A68631C03EB8303EE
:1011CC0005EBC3035B78D3B9B2F850309BB2134430
:1011DC00621C02EB820215F8322003EB0213B3F807
:1011EC000C24C2F30902A3F80C24B3F80C246FEA04
:1011FC0042426FEA524292B2A3F80C24C1E7012B8F
:10120C00BFD1B2F850309BB21344621C02EB820285
:10121C0015F8322003EB02130022A3F80C24B0E7DC
:10122C0004EB840205EBC20200271764B2E604EB60
:10123C00840205EBC202D66B1E44D663526C04EBDF
:10124C00840405EBC4041344636400F0CDFD6BE52A
:10125C0032462846FFF753FB66E50020BDE8F081D7
:10126C0090F8A832012B0DD010B50446012380F85C
:10127C00A83280F82410006800F093FD002084F858
:10128C00A80210BD0220704710B584B00446006857
:10129C0000F091FD10F4004F20D110F4806F21D19B
:1012AC0010F4804F2FD110F4005F37D110F4805F11
:1012BC003ED110F4006F40F0878010F4007F40F0B6
:1012CC00AE8010F4807F27D02268B2F844309BB2F5
:1012DC0023F480739BB2A2F844301DE02046FFF744
:1012EC0020FD19E02268B2F844309BB223F48063ED
:1012FC009BB2A2F844302046FFF715F90021204696
:10130C00FFF7AEFF08E02268B2F844309BB223F43A
:10131C0080439BB2A2F8443004B010BD2268B2F8EE
:10132C0044309BB223F400539BB2A2F84430F3E751
:10133C002268B2F840309BB223F004039BB2A2F8AF
:10134C0040302268B2F840309BB223F008039BB2C5
:10135C00A2F840302046FFF709F92268B2F8443071
:10136C009BB223F480539BB2A2F84430D4E722689A
:10137C0032F8231004AA02EB430222F8101C0133AA
:10138C00DBB2072BF3D92268B2F840309BB243F0A2
:10139C000103A2F840302268B2F840309BB223F02F
:1013AC0001039BB2A2F840302368B3F8442012F436
:1013BC00806FF9D0B3F8442092B222F4806292B2DA
:1013CC00A3F8442000230BE00023DAE7226804A9E9
:1013DC0001EB430131F8101C22F823100133DBB26E
:1013EC00072BF3D92268B2F840309BB243F00803C4
:1013FC00A2F840302268B2F844309BB223F4006368
:10140C009BB2A2F844302268B2F840309BB243F051
:10141C000403A2F840302046FFF798F87CE72268D6
:10142C00B2F844309BB223F400739BB2A2F8443060
:10143C002046FFF772F86FE710B50446084611F026
:10144C00800F25D101F0070C0CEB8C01C90001F5C4
:10145C00B47E04EB0E010CEB8C0C04EBCC0C4FF0BB
:10146C00000E8CF869E100F0070008700A61CB707F
:10147C00022B1AD094F8A832012B19D0012384F82E
:10148C00A832206800F047F9002084F8A80210BDAB
:10149C0001F0070C0CF1010C0CEB8C0104EBC101FD
:1014AC004FF0010E81F801E0DDE700230B71E1E75D
:1014BC000220ECE710B504460B4611F0800F1FD14B
:1014CC0001F0070202EB8201C90001F5B47101447D
:1014DC0002EB820200EBC202002082F8690103F0E9
:1014EC0007030B7094F8A832012B13D0012384F856
:1014FC00A832206800F0F4FA002084F8A80210BD8D
:10150C0001F00702013202EB820100EBC101012064
:10151C004870E4E70220F2E710B501F0070C0CEB81
:10152C008C01C90001F5B4710CEB8C0E00EBCE0EE6
:10153C00CEF87C21CEF880310024CEF884418EF890
:10154C0069418EF868C10144006800F04DFC2046EA
:10155C0010BD38B501F0070404F1010C0CEB8C0143
:10156C0004EB840E00EBCE0ECEF83C20CEF84030CF
:10157C0001228EF84C20CEF848300025CEF844508D
:10158C0000EBC1035A7000F831401946006800F0B6
:10159C002BFC284638BD38B501F00705426895424A
:1015AC0031D804460B4611F0800F1ED101EB81019E
:1015BC00C90001F5B471014403EB830300EBC303D1
:1015CC00002283F8692101238B700D7094F8A832E6
:1015DC00012B1AD0012384F8A832206800F06BFB91
:1015EC005DB1002084F8A80238BD6B1C03EB8301AD
:1015FC0000EBC10101224A70E5E704F52C7120686B
:10160C0000F0DDFBEDE70120EEE70220ECE70B46F6
:10161C0001F00F014268914230D810B5044613F026
:10162C00800F21D103F0070202EB8201C90001F502
:10163C00B471014402EB820200EBC202002082F87A
:10164C00690100228A7003F007030B7094F8A8322A
:10165C00012B15D0012384F8A832206800F050FB30
:10166C00002084F8A80210BD03F00702013202EB3F
:10167C00820100EBC10101204870E2E701207047B4
:10168C000220F0E711F0800F0BD001F007010131BF
:10169C0001EB810100EBC10052B90273C380002041
:1016AC00704701EB8101C90001F5B4710844F3E7FF
:1016BC000122027303811B0C4381F0E784B001A863
:1016CC0080E80E00002004B0704703460020A3F809
:1016DC0044004FF43F42A3F840207047B0F840302C
:1016EC0023F47C535B045B0CA0F840300020704763
:1016FC000020704784B0844601A880E80E000123C6
:10170C00ACF840300020ACF84000ACF84400ACF829
:10171C00500004B0704710B5034691F800C030F883
:10172C002C2092B222F4EC4222F0700292B2C878D1
:10173C00032861D8DFE800F0555C0258002048F21D
:10174C00800E42EA0E0223F82C2091F800C033F8E8
:10175C002C2092B222F4E04222F0700242EA0C02F7
:10176C0042EA0E0223F82C200A7B002A40F0DC808F
:10177C004A78002A51D0B3F8502092B21A440C780F
:10178C0002EB0412B1F806C04FEA5C0C4FEA4C0CA9
:10179C00A2F800C40C7833F8242012F0400F0CD0BF
:1017AC0033F8242092B222F4E04222F0700242F488
:1017BC00004242F0C00223F82420CA78012A1DD02E
:1017CC00097833F8212092B222F4E04222F0400250
:1017DC0082F0200242F4004242F0800223F82120E1
:1017EC0017E142F40072AAE742F4C0620020A6E7B7
:1017FC0042F480620020A2E70120A0E7097833F8C8
:10180C00212092B222F4E04222F0400242F4004243
:10181C0042F0800223F82120FBE0B3F8502092B272
:10182C001A440C7802EB0412B1F806C04FEA5C0CB7
:10183C004FEA4C0CA2F808C4B3F8502092B21A44E8
:10184C000C7802EB0412B2F80CC4CCF3090CA2F81D
:10185C000CC40C693E2C39D94FEA541E14F01F0FDE
:10186C0001D10EF1FF3EB2F80CC41FFA8CFC4FEA0A
:10187C008E2E1FFA8EFE4CEA0E0C4CF4004CA2F885
:10188C000CC40C7833F8242012F4804F0CD033F8AD
:10189C00242092B222F4E04222F0700242F4404240
:1018AC0042F0800223F82420097869BB33F8212008
:1018BC0092B222F4804222F0700282F4405242F43E
:1018CC00004242F0800223F82120A2E04CB9B2F889
:1018DC000C446FEA44446FEA5444A4B2A2F80C449A
:1018EC00CFE74FEA540C14F0010F01D00CF1010CAE
:1018FC00B2F80C44A4B24FEA8C2C1FFA8CFC44EACC
:10190C000C04A2F80C44BCE733F8212092B222F468
:10191C00804222F0700282F4005242F4004242F003
:10192C00800223F8212074E0CA78022A72D00C7845
:10193C0033F8242092B222F4E24222F0700242F4F4
:10194C00004242F0800223F82420B3F8502092B2D7
:10195C001A4491F800C002EB0C12B1F808C04FEA1F
:10196C005C0C4FEA4C0CA2F800C4B3F8502092B2B5
:10197C001A4491F800C002EB0C12B1F80AC04FEAFD
:10198C005C0C4FEA4C0CA2F808C44A78002A50D1DF
:10199C000C7833F8242012F4804F0CD033F8242028
:1019AC0092B222F4E04222F0700242F4404242F041
:1019BC00800223F824200C7833F8242012F0400FF6
:1019CC000CD033F8242092B222F4E04222F07002C0
:1019DC0042F4004242F0C00223F8242091F800C0E7
:1019EC0033F82C2092B222F4804222F0700282F45E
:1019FC00405248F28004224323F82C20097833F813
:101A0C00212092B222F4E04222F04002224323F839
:101A1C00212010BD0C7833F8242092B222F4E0423D
:101A2C0022F0700242F4014242F0800223F824209A
:101A3C008BE70C7833F8242012F4804F0CD033F859
:101A4C00242092B222F4E04222F0700242F440428E
:101A5C0042F0800223F824200C7833F8242012F072
:101A6C00400F0CD033F8242092B222F4E04222F042
:101A7C00700242F4004242F0C00223F82420CA78DB
:101A8C00012A1ED00C7833F8242092B222F4E042C2
:101A9C0022F0400282F0200242F4004242F0800226
:101AAC0023F82420097833F8212092B222F48042C2
:101ABC0022F0700242F4004242F0800223F821200E
:101ACC00A7E70C7833F8242092B222F4E04222F0FB
:101ADC00400242F4004242F0800223F82420E1E765
:101AEC000B7B002B46D14B7813B30A7830F822309D
:101AFC0013F0400F0CD030F822309BB223F4E043AB
:101B0C0023F0700343F4004343F0C00320F8223069
:101B1C000A7830F822309BB223F4E04323F04003E0
:101B2C0043F4004343F0800320F822300020704738
:101B3C000A7830F8223013F4804F0CD030F8223071
:101B4C009BB223F4E04323F0700343F4404343F08F
:101B5C00800320F822300A7830F822309BB223F42C
:101B6C00804323F0700343F4004343F0800320F8D8
:101B7C002230DBE74B78002B4ED10A7830F822303C
:101B8C0013F4804F0CD030F822309BB223F4E04396
:101B9C0023F0700343F4404343F0800320F82230D9
:101BAC000A7830F8223013F0400F0CD030F8223085
:101BBC009BB223F4E04323F0700343F4004343F05F
:101BCC00C00320F822300A7830F822309BB223F47C
:101BDC00E04323F0700343F4004343F0C00320F8C8
:101BEC0022300A7830F822309BB223F4804323F061
:101BFC00700348F2800C43EA0C0320F822300A7878
:101C0C0030F822309BB223F4E04323F0400343EA44
:101C1C000C0320F8223089E70A7830F8223013F4CC
:101C2C00804F0CD030F822309BB223F4E04323F0E9
:101C3C00700343F4404343F0800320F822300A78C9
:101C4C0030F8223013F0400F0CD030F822309BB219
:101C5C0023F4E04323F0700343F4004343F0C00348
:101C6C0020F822300A7830F822309BB223F4E0437B
:101C7C0023F0700343F4404343F0800320F82230F8
:101C8C000A7830F822309BB223F4E04323F040036F
:101C9C0048F2800C43EA0C0320F822300A7830F822
:101CAC0022309BB223F4804323F0700343EA0C03ED
:101CBC0020F822303AE74B788BB10A7830F8223092
:101CCC009BB223F4E04323F0400383F0100343F46E
:101CDC00004343F0800320F82230002070470A783C
:101CEC0030F822309BB223F4804323F0700383F44A
:101CFC00805343F4004343F0800320F82230ECE798
:101D0C000B7B002B4BD14B7833B30A7830F8223055
:101D1C0013F0400F0CD030F822309BB223F4E04388
:101D2C0023F0700343F4004343F0C00320F8223047
:101D3C00CB78012B33D00A7830F822309BB223F4C5
:101D4C00E04323F0400383F0200343F4004343F0CB
:101D5C00800320F8223022E00A7830F8223013F485
:101D6C00804F0CD030F822309BB223F4E04323F0A8
:101D7C00700343F4404343F0800320F822300A7888
:101D8C0030F822309BB223F4804323F0700383F4A9
:101D9C00405343F4004343F0800320F822300020EA
:101DAC00704711B98023A0F84C30002070470020F8
:101DBC00704700207047B0F8440080B27047002094
:101DCC00704701335B0800EB420000F5806008E0CF
:101DDC000A7891F801C042EA0C2220F8042B023157
:101DEC00013B002BF4D1704770B505460C464A7880
:101DFC00012A3BD00B7B002B40F0A6828B690A6931
:101E0C00934240F284829B1A8B61B5F850309BB29E
:101E1C002B44217803EB0113B3F80C14C1F3090123
:101E2C00A3F80C143E2A40F27682510912F01F0FCF
:101E3C0000D10139B3F80C2492B2890289B20A4359
:101E4C0042F40042A3F80C24227835F822309BB2DD
:101E5C0023F4804323F0700383F4405343F4004392
:101E6C0043F0800325F82230002070BD8E6909698B
:101E7C008E4200D90E46237B73B3E378022B4DD0F0
:101E8C00236A9B1B2362217835F8213013F0400F15
:101E9C0000F0F581002A40F0E281B5F850309BB299
:101EAC002B4403EB0113B3F80C24C2F30902A3F87F
:101EBC000C243E2E40F2BA81710916F01F0F00D18E
:101ECC000139B3F80C2492B2890289B20A4342F464
:101EDC000042A3F80C24CBE1B6B23346E288616928
:101EEC002846FFF76EFFB5F850309BB22B44227892
:101EFC0003EB0213A3F80464227835F822309BB26A
:101F0C0023F4E04323F0400383F0300343F4004315
:101F1C0043F0800325F822300020A6E7236A99427B
:101F2C0080F06681227835F822309BB223F4E043AE
:101F3C0023F0700343F4014343F0800325F822306F
:101F4C00236A9B1B2362227835F8223013F0400F52
:101F5C0000F0A7806378B3BBB5F850309BB22B442C
:101F6C0003EB0213B3F80C24C2F30902A3F80C24FC
:101F7C003E2E0FD9710916F01F0F00D10139B3F89D
:101F8C000C2492B2890289B20A4342F40042A3F8AB
:101F9C000C241AE04EB9B3F80C246FEA42426FEAF3
:101FAC00524292B2A3F80C240FE0720816F0010F03
:101FBC0000D00132B3F80C1489B2920292B20A43E7
:101FCC00A3F80C2401E0012B30D0B3B26289616913
:101FDC002846FFF7F6FE636933446361236A22697E
:101FEC0093422DD99B1B23626378002B45D1B5F806
:101FFC0050309BB22B44227803EB0213B3F8042429
:10200C00C2F30902A3F804243E2E1DD9710916F05F
:10201C001F0F00D10139B3F8042492B2890289B29E
:10202C000A4342F40042A3F8042428E0B5F85030E7
:10203C009BB22B4403EB0213B2B2A3F80C24C4E7FB
:10204C00002222621E46CFE74EB9B3F804246FEA91
:10205C0042426FEA524292B2A3F804240FE0720893
:10206C0016F0010F00D00132B3F8041489B29202B9
:10207C0092B20A43A3F8042401E0012B06D0B3B2B8
:10208C00228961692846FFF79CFE35E7B5F8503088
:10209C009BB22B44227803EB0213B2B2A3F80424B4
:1020AC00EDE76378B3BBB5F850309BB22B4403EB30
:1020BC000213B3F80424C2F30902A3F804243E2E3D
:1020CC000FD9710916F01F0F00D10139B3F8042490
:1020DC0092B2890289B20A4342F40042A3F8042462
:1020EC001AE04EB9B3F804246FEA42426FEA524246
:1020FC0092B2A3F804240FE0720816F0010F00D07E
:10210C000132B3F8041489B2920292B20A43A3F8D2
:10211C00042401E0012B30D0B3B222896169284636
:10212C00FFF74FFE636933446361236A226993426C
:10213C002DD99B1B23626378002B45D1B5F8503009
:10214C009BB22B44227803EB0213B3F80C24C2F39A
:10215C000902A3F80C243E2E1DD9710916F01F0F8D
:10216C0000D10139B3F80C2492B2890289B20A4326
:10217C0042F40042A3F80C2428E0B5F850309BB28E
:10218C002B4403EB0213B2B2A3F80424C4E70022DD
:10219C0022621E46CFE74EB9B3F80C246FEA4242D6
:1021AC006FEA524292B2A3F80C240FE0720816F0B8
:1021BC00010F00D00132B3F80C1489B2920292B222
:1021CC000A43A3F80C2401E0012B06D0B3B26289B8
:1021DC0061692846FFF7F5FD8EE6B5F850309BB2E5
:1021EC002B44227803EB0213B2B2A3F80C24EDE7D4
:1021FC00217835F8212092B222F4E24222F07002CA
:10220C0042F4004242F0800225F82120B5F850201B
:10221C0092B22A44217802EB01129BB2A2F8043448
:10222C00228961692846FFF7CCFD65E64EB9B3F803
:10223C000C246FEA42426FEA524292B2A3F80C2489
:10224C0016E0720816F0010F00D00132B3F80C142E
:10225C0089B2920292B20A43A3F80C2408E0B5F8B2
:10226C0050309BB22B4403EB0113B2B2A3F80C24F5
:10227C00B3B2628961692846FFF7A3FD3CE6B2BBA5
:10228C00B5F850309BB22B4403EB0113B3F8042484
:10229C00C2F30902A3F804243E2E0FD9710916F0DB
:1022AC001F0F00D10139B3F8042492B2890289B20C
:1022BC000A4342F40042A3F8042421E04EB9B3F8D7
:1022CC0004246FEA42426FEA524292B2A3F8042409
:1022DC0016E0720816F0010F00D00132B3F80414A6
:1022EC0089B2920292B20A43A3F8042408E0B5F82A
:1022FC0050309BB22B4403EB0113B2B2A3F804246D
:10230C00B3B2228961692846FFF75BFDF4E5002230
:10231C008A611A4679E54AB9B3F80C246FEA42424D
:10232C006FEA524292B2A3F80C248DE5510812F0D8
:10233C00010F00D00131B3F80C2492B2890289B29A
:10234C000A43A3F80C247FE5CB78022B4DD0012B4C
:10235C0040F02F8189692369994240F2E680C91ABD
:10236C00A161F2B9B5F8502092B22A44217802EB5F
:10237C000112B2F80414C1F30901A2F804143E2BA3
:10238C0040F2D780580913F01F0F00D10138B2F872
:10239C00041489B2800280B2014341F40041A2F8D6
:1023AC0004146278002A40F0F680B5F8502092B2FE
:1023BC002A44217802EB0112B2F80C14C1F3090182
:1023CC00A2F80C143E2B40F2CD80590913F01F0FCC
:1023DC0000D10139B2F80C349BB2890289B20B439B
:1023EC0043F40043A2F80C342EE5F2B9B0F85030A7
:1023FC009BB203440A7803EB0213B3F80424C2F330
:10240C000902A3F804240A693E2A31D9510912F0B1
:10241C001F0F00D10139B3F8042492B2890289B29A
:10242C000A4342F40042A3F804246378002B51D1F0
:10243C00B5F850309BB22B44227803EB0213B3F85F
:10244C000C24C2F30902A3F80C2422693E2A28D9D1
:10245C00510912F01F0F00D10139B3F80C2492B2BC
:10246C00890289B20A4342F40042A3F80C2433E0F7
:10247C004AB9B3F804246FEA42426FEA524292B26C
:10248C00A3F80424D1E7510812F0010F00D0013158
:10249C00B3F8042490B28A0292B20243A3F8042443
:1024AC00C3E74AB9B3F80C246FEA42426FEA5242CE
:1024BC0092B2A3F80C240FE0510812F0010F00D0D7
:1024CC000131B3F80C2490B28A0292B20243A3F801
:1024DC000C2401E0012B1DD0E369002B3FF4B4ACBC
:1024EC00227835F8221044F2400303EA01008B43B2
:1024FC0002D000287FF4A8AC35F822309BB223F42C
:10250C00E04323F0700343F4004343F0C00325F889
:10251C00223099E4B5F850309BB22B44227803EB6F
:10252C000213228AA3F80C24D6E70023A3610B46DE
:10253C0017E74BB9B2F804146FEA41416FEA514105
:10254C0089B2A2F804142CE7590813F0010F00D03B
:10255C000131B2F8040480B2890289B20143A2F8B5
:10256C0004141EE74BB9B2F80C346FEA43436FEA1C
:10257C0053439BB2A2F80C3466E4590813F0010FD4
:10258C0000D00131B2F80C3498B28B029BB20343E9
:10259C00A2F80C3458E4012A7FF456ACB5F850205C
:1025AC0092B22A44217802EB01129BB2A2F80C34AD
:1025BC004AE4012059E410B45C0800EB420000F539
:1025CC00806007E030F8042B0A70C2F307224A70CF
:1025DC000231013C002CF5D113F0010F01D003881E
:1025EC000B7010BC7047000010B504460E4B1A78E7
:1025FC004FF47A73B3FBF2F30C4A1068B0FBF3F0B0
:10260C0000F03EFC68B90F2C01D901200AE0002231
:10261C0021464FF0FF3000F015FC054B1C600020EC
:10262C0000E0012010BD00BF500000205800002029
:10263C005400002008B5074A136843F010031360D8
:10264C00032000F0EDFB0F20FFF7CEFFFDF740FE5F
:10265C00002008BD00200240034A1168034B1B7880
:10266C000B441360704700BF440A00205000002048
:10267C00014B1868704700BF440A002038B5044667
:10268C00FFF7F6FF0546B4F1FF3F02D0044B1B7871
:10269C001C44FFF7EDFF401BA042FAD338BD00BF2E
:1026AC005000002082B0084B1B68084AA2FB032391
:1026BC005B0A00FB03F3019300BF019B5A1E0192BE
:1026CC00002BF9D102B0704758000020D34D621096
:1026DC00002800F0F18170B582B00446036813F055
:1026EC00010F2CD0994B5B6803F00C03042B1DD00D
:1026FC00964B5B6803F00C03082B12D06368B3F5A0
:10270C00803F41D0002B55D103F1804303F50433B6
:10271C001A6822F480321A601A6822F480221A6035
:10272C0037E08A4B5B6813F4803FE7D0874B1B681C
:10273C0013F4003F03D06368002B00F0BF812368C3
:10274C0013F0020F75D0814B5B6813F00C0F5FD048
:10275C007E4B5B6803F00C03082B54D02369002BD1
:10276C0000F08A807A4B01221A60FFF781FF054640
:10277C00764B1B6813F0020F75D1FFF779FF401BE6
:10278C000228F5D903209EE1704A136843F4803384
:10279C001360636843B3FFF76BFF05466B4B1B6815
:1027AC0013F4003FCBD1FFF763FF401B6428F5D92E
:1027BC00032088E1B3F5A02F09D0644B1A6822F4EA
:1027CC0080321A601A6822F480221A60E1E703F161
:1027DC008043A3F53C331A6842F480221A601A68CD
:1027EC0042F480321A60D4E7FFF742FF0546574B9C
:1027FC001B6813F4003FA2D0FFF73AFF401B64287C
:10280C00F5D903205FE1514B5B6813F4803FA5D1F0
:10281C004E4B1B6813F0020F03D02369012B40F0C1
:10282C004F814A4A136823F0F803616943EAC103F4
:10283C001360236813F0080F33D0A369002B5CD00E
:10284C00434B0122C3F88024FFF712FF05463F4B90
:10285C005B6A13F0020F21D1FFF70AFF401B02281D
:10286C00F5D903202FE1394A136823F0F803616985
:10287C0043EAC1031360DCE7354B00221A60FFF713
:10288C00F7FE0546314B1B6813F0020FD1D0FFF752
:10289C00EFFE401B0228F5D9032014E10120FFF7BD
:1028AC0001FF236813F0040F00F09680274BDB69BF
:1028BC0013F0805F34D1254BDA6942F08052DA6133
:1028CC00DB6903F080530193019B0125214B1B68AD
:1028DC0013F4807F26D0E368012B3DD0002B53D11D
:1028EC0003F1804303F504331A6A22F001021A62E1
:1028FC001A6A22F004021A6233E0154B0022C3F864
:10290C008024FFF7B5FE0546104B5B6A13F0020FEF
:10291C00C7D0FFF7ADFE401B0228F5D90320D2E04B
:10292C000025D3E70B4A136843F480731360FFF759
:10293C009FFE0646074B1B6813F4807FCBD1FFF735
:10294C0097FE801B6428F5D90320BCE000100240E0
:10295C0000004242007000405F4A136A43F00103DA
:10296C001362E36833B3FFF783FE06465A4B1B6AC8
:10297C0013F0020F2FD1FFF77BFE801B41F288333F
:10298C009842F3D903209EE0052B09D0524B1A6ACA
:10299C0022F001021A621A6A22F004021A62E0E7BB
:1029AC004D4B1A6A42F004021A621A6A42F0010292
:1029BC001A62D6E7FFF75CFE0646474B1B6A13F01C
:1029CC00020F08D0FFF754FE801B41F28833984267
:1029DC00F3D9032077E0E5B9E369002B72D03E4AC6
:1029EC00526802F00C02082A56D0022B17D03B4B2F
:1029FC0000221A66FFF73CFE0446374B1B6813F0A7
:102A0C00007F47D0FFF734FE001B0228F5D90320C6
:102A1C0059E0314AD36923F08053D361DCE72F4B63
:102A2C0000221A66FFF724FE05462B4B1B6813F099
:102A3C00007F06D0FFF71CFE401B0228F5D90320AF
:102A4C0041E0236AB3F5803F1AD023494B6823F445
:102A5C007413226A606A024313434B601F4B0122BA
:102A6C001A66FFF705FE04461B4B1B6813F0007F2C
:102A7C000ED1FFF7FDFD001B0228F5D9032022E043
:102A8C00154A536823F40033A1680B435360DCE709
:102A9C00002018E0002016E0012B16D00E4B5B68CE
:102AAC0003F48031226A914211D103F47013626AEB
:102ABC0093420ED1002006E001207047012002E075
:102ACC00012000E0002002B070BD0120FBE70120D6
:102ADC00F9E70120F7E700BF001002400000424276
:102AEC000F4B5B6803F00C02082A01D00D487047AD
:102AFC00C3F383420C49885C13F4803F0BD0084B22
:102B0C005B68C3F34043094AD35C064A02FB00F0FE
:102B1C00B0FBF3F07047064B03FB00F0704700BFAF
:102B2C000010024000127A00986E0008946E0008A3
:102B3C0000093D00002800F0A08070B50D46044649
:102B4C00524B1B6803F007038B420BD24F4A13689E
:102B5C0023F007030B431360136803F007038B4246
:102B6C0040F08D80236813F0020F17D013F0040F80
:102B7C0004D0474A536843F4E0635360236813F06E
:102B8C00080F04D0424A536843F460535360404AE0
:102B9C00536823F0F003A1680B435360236813F0D0
:102BAC00010F31D06368012B20D0022B25D0384A7D
:102BBC00126812F0020F64D035494A6822F0030201
:102BCC0013434B60FFF754FD0646314B5B6803F033
:102BDC000C036268B3EB820F16D0FFF749FD801B24
:102BEC0041F288339842F0D9032045E0284A126814
:102BFC0012F4003FE0D101203EE0254A126812F0A9
:102C0C00007FD9D1012037E0204B1B6803F007036C
:102C1C00AB420AD91D4A136823F007032B431360F8
:102C2C00136803F00703AB422DD1236813F0040F94
:102C3C0006D0174A536823F4E063E1680B435360F2
:102C4C00236813F0080F07D0114A536823F460531C
:102C5C00216943EAC1035360FFF742FF0C4B5B68E9
:102C6C00C3F303130B4AD35CD8400B4B18600B4BCC
:102C7C001868FFF7B9FC002070BD012070470120D7
:102C8C00FAE70120F8E70120F6E700BF0020024038
:102C9C0000100240A86E00085800002054000020CC
:102CAC0070B582B00446036813F0010F36D03F4B69
:102CBC00DB6913F0805F49D13C4BDA6942F08052FA
:102CCC00DA61DB6903F080530193019B0125384BDA
:102CDC001B6813F4807F3BD0344B1B6A13F4407396
:102CEC0013D0626802F440729A420ED02F4A136AD3
:102CFC0023F440702F490126C1F840640026C1F826
:102D0C004064106213F0010F36D1284A136A23F481
:102D1C00407361680B431362002D3ED1236813F09E
:102D2C00020F06D0214A536823F44043A1680B4399
:102D3C005360236813F0100F34D01C4A536823F4EB
:102D4C008003E1680B43536000202CE00025BEE7B4
:102D5C00174A136843F480731360FFF789FC064627
:102D6C00134B1B6813F4807FB6D1FFF781FC801BDB
:102D7C006428F5D9032016E0FFF77AFC06460B4BC6
:102D8C001B6A13F0020FC0D1FFF772FC801B41F2DB
:102D9C0088339842F3D9032005E0D36923F080539C
:102DAC00D361BBE7002002B070BD00BF0010024031
:102DBC000070004000004242002808DB0901C9B243
:102DCC0000F1604000F5614080F80013704700F09E
:102DDC000F000901C9B2014B1954704714ED00E002
:102DEC0000B500F00700C0F1070CBCF1040F28BFC0
:102DFC004FF0040C031D062B0FD9C31E4FF0FF3EE2
:102E0C000EFA0CF021EA000199400EFA03FE22EAB8
:102E1C000E0241EA02005DF804FB0023EEE700001D
:102E2C00074AD36823F4E0631B041B0C000200F474
:102E3C00E060034343F0BF6343F40033D360704757
:102E4C0000ED00E010B50446054BD868C0F3022035
:102E5C00FFF7C6FF01462046FFF7AEFF10BD00BFCF
:102E6C0000ED00E0002807DB00F01F024009012301
:102E7C009340024A42F82030704700BF00E100E066
:102E8C000138B0F1807F0BD24FF0E0235861054A36
:102E9C00F02182F823100020986107221A617047F4
:102EAC000120704700ED00E0704798B108B503466B
:102EBC00D0F8B40210B10020C3F8B40209B1C3F8C1
:102ECC00B012012183F89C121A701846FDF754FBBE
:102EDC00002008BD0220704719B1C0F8B4120020C0
:102EEC0070470220704708B5FDF77AFB002008BD3B
:102EFC0008B5D0F8B4322BB11B68984700B908BD9F
:102F0C000220FCE70220FAE708B5D0F8B4325B687F
:102F1C009847002008BD38B5044600F52A752846A8
:102F2C0000F035F90123C4F89432B4F8AE32C4F889
:102F3C00983294F8A81201F01F03012B0ED0022B2B
:102F4C0011D02BB101F080012046FDF764FB03E0AA
:102F5C002946204600F0CAFA002038BD29462046F2
:102F6C0000F0F8FAF8E72946204600F023FBF3E7D7
:102F7C0038B504460D4691BB1346D0F89422032A6B
:102F8C0003D0052A24D0084633E0D0F86011D0F8DD
:102F9C00642191420DD9891AC0F860118A4206D970
:102FAC008AB21946204600F028FC284621E092B24D
:102FBC00F7E7D0F8B4321B691BB190F89C22032AB6
:102FCC0004D0204600F021FC284612E09847F8E790
:102FDC000021C0F89412FDF71EFB284609E0D0F83A
:102FEC00B4329B6933B190F89C22032A04D19847E0
:102FFC00002038BD0220FCE70220FAE738B5044671
:10300C000D46002953D11346D0F89422022A0CD035
:10301C00042A00D01AB980212046FDF7FCFA94F856
:10302C00A032012B3ED0284638BD026A416A8A4242
:10303C001BD8C269B2FBF1F301FB13232BB99142EC
:10304C0003D8D0F898329A421CD3D4F8B432DB6847
:10305C001BB194F89C22032A21D080212046FDF735
:10306C00DAFA204600F0DCFBD9E7521A026292B27F
:10307C00194600F0BAFB00231A4619462046FDF704
:10308C0001FBCCE70022114600F0AFFB0021C4F895
:10309C0098120B460A462046FDF7F4FABFE7204685
:1030AC009847DAE7002384F8A0322846BCE7D0F82A
:1030BC00B4325B6933B190F89C22032A04D198474F
:1030CC000020B1E70220AFE70220ADE770B504465F
:1030DC00402300221146FDF78BFA0125C4F8585104
:1030EC004026C4F864613346002280212046FDF757
:1030FC007FFAA561666284F89C520023C4F894326E
:10310C006360C4F8A432D4F8B8322BB1D4F8B4321A
:10311C005B68002120469847002070BD0174002098
:10312C00704790F89C3280F89D32042380F89C32D2
:10313C000020704790F89C32042B01D0002070477F
:10314C0090F89D3280F89C32F8E708B590F89C32E4
:10315C00032B01D0002008BDD0F8B432DB69002B62
:10316C00F8D09847F6E70346002002E00130C0B2E1
:10317C0001331A78002AF9D1704708B54B88012B16
:10318C0000D008BDC0F8A43200F03FFBF9E70B7883
:10319C0003704B7843708B78CA7803EB022343801F
:1031AC000B794A7903EB022383808B79CA7903EB81
:1031BC000223C380704710B504468021FDF72BFA1B
:1031CC0000212046FDF727FA10BD30B583B0054627
:1031DC000C460023ADF806304A88130A013B062B37
:1031EC0000F2A480DFE803F004182CA2A28693005E
:1031FC00D0F8B0321B680DF10601007C9847BDF881
:10320C0006201AB1E388002B40F09480E388002B51
:10321C0000F09A8003B030BD037C43B9D0F8B432CF
:10322C009B6A0DF10600984702234370E7E7D0F83C
:10323C00B432DB6A0DF10600984702234370DEE7D7
:10324C00D2B2052A52D8DFE802F003101D2A374407
:10325C00D0F8B0325B6823B10DF10601007C9847C1
:10326C00CDE72146FFF7A7FFD4E7D0F8B0329B6833
:10327C0023B10DF10601007C9847C0E72146FFF70A
:10328C009AFFC7E7D0F8B032DB6823B10DF1060125
:10329C00007C9847B3E72146FFF78DFFBAE7D0F8DB
:1032AC00B0321B6923B10DF10601007C9847A6E7EB
:1032BC002146FFF780FFADE7D0F8B0325B6923B150
:1032CC000DF10601007C984799E72146FFF773FF43
:1032DC00A0E7D0F8B0329B6923B10DF10601007C58
:1032EC0098478CE72146FFF766FF93E72146FFF7E7
:1032FC0062FF8FE7037C33B9D0F8B4325B6B0DF10E
:10330C00060098477BE72146FFF755FF82E7037CD1
:10331C0043B9D0F8B4321B6B0DF106009847072364
:10332C0043706CE72146FFF746FF73E72146FFF732
:10333C0042FF6FE79A4228BF1A46ADF806200146B5
:10334C00284600F045FA61E7284600F05EFA61E78E
:10335C0038B504468B88F3B9CB88E3B94B887F2BFF
:10336C0019D803F07F0590F89C32032B0CD080F811
:10337C009E522946FDF776F9204600F046FA35B103
:10338C00022384F89C3209E0FFF715FF06E00123C5
:10339C0084F89C3202E02046FFF70DFF38BD000098
:1033AC0038B504460D468978284B197001290ED87A
:1033BC0090F89C32022B0ED0032B21D02946FFF71C
:1033CC00FAFE224B19782046FFF79EFD02E02946B3
:1033DC00FFF7F1FE38BD81B14160032380F89C32C8
:1033EC00FFF786FD022803D0204600F00EFAF1E725
:1033FC0029462046FFF7DFFEECE700F006FAE9E786
:10340C0089B1436899421DD0D9B2FFF77DFD0F4BAE
:10341C00197861602046FFF76BFD02280DD020461D
:10342C0000F0F3F9D6E7022380F89C324160FFF7F5
:10343C006BFD204600F0E9F9CCE729462046FFF762
:10344C00BAFEC7E700F0E1F9C4E700BF480A002064
:10345C0008B5CB88012B0AD190F89C32022B09D9E4
:10346C00032B09D10122011D00F0B2F901E0FFF795
:10347C00A2FE08BD5BB213B9FFF79DFEF9E701464A
:10348C00002341F8083F012200F0A2F9F1E708B54A
:10349C0090F89C32013B022B12D8CB88022B0CD11A
:1034AC000123C360D0F8A4320BB10323C360022202
:1034BC0000F10C0100F08CF908BDFFF77CFEFBE776
:1034CC00FFF779FEF8E708B590F89C32013B022B28
:1034DC0009D84B88012B00D008BD0023C0F8A432BA
:1034EC0000F093F9F8E7FFF766FEF5E708B50B78FF
:1034FC0003F06003202B05D0402B03D043B1FFF722
:10350C005AFE03E0D0F8B4329B689847002008BDFF
:10351C004B78092B1BD8DFE803F011171A141A0883
:10352C00051A0E0BFFF751FEF0E7FFF711FFEDE761
:10353C00FFF736FFEAE7FFF78BFFE7E7FFF7A7FF99
:10354C00E4E7FFF71AFEE1E7FFF7BDFFDEE7FFF761
:10355C0032FEDBE738B505460C460B7803F060030A
:10356C00202B06D0402B04D01BB1FFF724FE0020EB
:10357C0038BD95F89C32013B022B16D82379012BD0
:10358C000ED8D5F8B4329B68214628469847E38874
:10359C00002BECD10028EAD1284600F036F9E6E7FA
:1035AC0021462846FFF707FEE1E721462846FFF7AC
:1035BC0002FEDCE770B505468B880C7804F06004DD
:1035CC00202C07D0DAB2402C04D05CB1FFF7F3FD0D
:1035DC00002405E0D5F8B4329B68284698470024AF
:1035EC00204670BD202C09D04E78012E33D0032EEE
:1035FC000AD0002E55D0FFF7DEFDF1E7D0F8B4323B
:10360C009B6898470446EBE790F89C32022B04D059
:10361C00032B11D0FFF7CFFDE2E70AB1802A03D1CB
:10362C002846FFF7C8FDDBE71146FCF7F4FF8021C5
:10363C002846FCF7F0FFD3E74B8823B91AB1802A50
:10364C0001D0CB881BB1284600F0DFF8C8E7114643
:10365C00FCF7E1FFF7E790F89C32022B04D0032B28
:10366C0011D0FFF7A8FDBBE70AB1802A03D1284689
:10367C00FFF7A1FDB4E71146FCF7CDFF80212846EA
:10368C00FCF7C9FFACE74B88002BA9D112F07F0FD8
:10369C0003D1284600F0B9F8A2E71146FCF7C3FFA6
:1036AC00F7E790F89C02022806D0032829D0284678
:1036BC00FFF781FD344693E70AB1802A13D113F04A
:1036CC00800F15D102F07F0202EB8202910001F50E
:1036DC00A8712944043100230B600222284600F013
:1036EC0077F834467CE72846FFF765FD344677E7E4
:1036FC0002F07F0202EB8202910010312944043166
:10370C00E9E75BB2002B1FDB02F00F0000EB80003F
:10371C0005EB8000D0F8580120B3002B27DB02F01A
:10372C007F0303EB83039C0004F5A8742C4404343E
:10373C000AB1802A24D10023236002222146284684
:10374C0000F046F834464BE702F00F0000EB800027
:10375C0005EB800080690028DFD12846FFF72BFDA0
:10376C0034463DE72846FFF726FD344638E702F09D
:10377C007F0303EB83039C0010342C440434D7E701
:10378C0011462846FCF757FF10B101232360D4E7FC
:10379C0000232360D1E7D0B170B50D461646044620
:1037AC00FFF7E1FC431C5B009BB233802B700323BF
:1037BC006B70022307E001345A1CD2B2E854023376
:1037CC00DBB20021A95420780028F4D170BD7047D9
:1037DC0008B513460222C0F89422C36103620A465C
:1037EC000021FCF747FF002008BD08B513460A4628
:1037FC000021FCF73FFF002008BD08B513460A4620
:10380C000021FCF73FFF002008BD08B50423C0F8D9
:10381C00943200231A461946FCF72CFF002008BDF1
:10382C0008B50523C0F8943200231A461946FCF754
:10383C0029FF002008BD0000772303800048704753
:10384C00B001002077230380004870473801002026
:10385C007723038000487047C0000020D0F8B832AE
:10386C0000201873704700000A230380004870473B
:10387C00A800002070B582B0D0F8B8520023ADF883
:10388C0006300C7814F0600425D0202C72D14B78C3
:10389C00023B092B1BD8DFE803F014091A1A1A1A79
:1038AC001A1A0F058B782B60002466E0012229463A
:1038BC00FFF78EFF002460E04B881B0A6B6000242E
:1038CC005BE00122291DFFF783FF002455E0FFF781
:1038DC0072FC022451E04E780B2E47D8DFE806F03C
:1038EC00064646464646154646462D3B90F89C32C3
:1038FC00032B03D0FFF75FFC02243EE002220DF104
:10390C000601FFF765FF344637E04B881B0A222B74
:10391C0009D0212B0DD1CA88092A28BF09221849A0
:10392C00FFF756FF29E0CA884A2A28BF4A221549C0
:10393C00F6E7FFF740FC02241FE090F89C32032BC3
:10394C0003D0FFF738FC022417E0012205F108012F
:10395C00FFF73EFF11E090F89C32032B02D18B78DD
:10396C00AB600AE0FFF727FC022406E0FFF723FC1C
:10397C00022402E0FFF71FFC0224204602B070BDB7
:10398C00B40000205C00002010B504468221FCF736
:10399C003AFE00232364D4F8B80220B1FCF77EFE73
:1039AC000023C4F8B832002010BD10B504464023E3
:1039BC0003228221FCF71CFE012323641020FCF758
:1039CC0069FEC4F8B80218B103460020187310BD84
:1039DC000220FCE710B5D0F8B84290F89C32032BCB
:1039EC0001D0002010BD237B002BFAD101232373BF
:1039FC0013460A468221FCF73DFEF2E7FFF754FA24
:103A0C000B480C490C4A002302E0D458C450043330
:103A1C00C4188C42F9D3094A094C002301E0136005
:103A2C000432A242FBD300F00FF8FCF7F3FB704713
:103A3C000000002060020020C06E00086002002020
:103A4C004C0A0020FEE7000070B500260C4D0D4C12
:103A5C00641BA410A64209D100F030F800260A4DD0
:103A6C000A4C641BA410A64205D170BD55F8043B4A
:103A7C0098470136EEE755F8043B98470136F2E7D4
:103A8C00B86E0008B86E0008B86E0008BC6E00086E
:103A9C000A44914200F1FF3300D1704710B511F880
:103AAC00014B914203F8014FF9D110BD034602447A
:103ABC00934200D1704703F8011BF9E7F8B500BF3A
:103ACC00F8BC08BC9E467047F8B500BFF8BC08BCF3
:043ADC009E4670474B
:103AE00020006F2C00000000000040018702D90276
:103AF000D9020000000000000000000000000000EB
:103B000000000000000000009133DC606E36DC60D5
:103B100000000000000000000000000000000000A5
:103B20002000702C000000000000D7002502D90200
:103B3000D9020000000000000000000000000000AA
:103B400000000000000000009552DC607255DC604F
:103B50000000000000000000000000000000000065
:103B60002000712C0000000000008300D101D90268
:103B7000D90200000000000000000000000000006A
:103B80000000000000000000D671DC60B374DC604F
:103B90000000000000000000000000000000000025
:103BA0002000722C00000000000035008301D902C3
:103BB000D90200000000000000000000000000002A
:103BC00000000000000000003691DC601394DC600F
:103BD00000000000000000000000000000000000E5
:103BE0002000732C000000000000F8FF0F01D90234
:103BF000D9020000000000000000000000000000EA
:103C0000000000000000000077B0DC6054B3DC600E
:103C100000000000000000000000000000000000A4
:103C20002000742C000000000000BEFF8600D902B6
:103C3000D9020000000000000000000000000000A9
:103C400000000000000000009ACFDC6077D2DC604A
:103C50000000000000000000000000000000000064
:103C60002000752C00000000000097FFF6FFD9022D
:103C7000D902000000000000000000000000000069
:103C80000000000000000000DBEEDC6099F1DC6069
:103C90000000000000000000000000000000000024
:103CA0002000762C00000000000097FF61FFD90281
:103CB000D902000000000000000000000000000029
:103CC00000000000000000003B0EDD601811DD6008
:103CD00000000000000000000000000000000000E4
:103CE0002000772C0000000000003AFFE0FED9021F
:103CF000D9020000000000000000000000000000E9
:103D000000000000000000005D2DDD603A30DD6045
:103D100000000000000000000000000000000000A3
:103D20002000782C000000000000FEFE75FED90285
:103D3000D9020000000000000000000000000000A8
:103D40000000000000000000BD4CDD609A4FDD6007
:103D50000000000000000000000000000000000063
:103D60002000792C000000000000C9FE1BFED902D3
:103D7000D902000000000000000000000000000068
:103D80000000000000000000FE6BDD60DB6EDD6007
:103D90000000000000000000000000000000000023
:103DA00020007A2C000000000000C9FECEFDD902E0
:103DB000D902000000000000000000000000000028
:103DC0000000000000000000028BDD60DF8DDD6080
:103DD00000000000000000000000000000000000E3
:103DE00020007B2C0000000000007DFE95FDD90224
:103DF000D9020000000000000000000000000000E8
:103E0000000000000000000062AADD603FADDD6040
:103E100000000000000000000000000000000000A2
:103E200020007C2C00000000000062FE63FDD9022F
:103E3000D9020000000000000000000000000000A7
:103E40000000000000000000A3C9DD6080CCDD6040
:103E50000000000000000000000000000000000062
:103E600020007D2C00000000000062FE24FDD9022D
:103E7000D902000000000000000000000000000067
:103E800000000000000000002508DE60E40ADE609B
:103E90000000000000000000000000000000000022
:103EA00020007E2C00000000000062FEFBFCD90216
:103EB000D902000000000000000000000000000027
:103EC0000000000000000000A746DE606649DE60DA
:103ED00000000000000000000000000000000000E2
:103EE00020007F2C00000000000062FEC3FCD9020D
:103EF000D9020000000000000000000000000000E7
:103F00000000000000000000ACC3DE6089C6DE6077
:103F100000000000000000000000000000000000A1
:103F20002000802C00000000000062FE99FCD902F5
:103F3000D9020000000000000000000000000000A6
:103F40000000000000000000147FDF60D381DF600C
:103F50000000000000000000000000000000000061
:103F60002000812C0000000000001DFE99FCD902F9
:103F7000D902000000000000000000000000000066
:103F80000000000000000000FF78E060DC7BE060E3
:103F90000000000000000000000000000000000021
:103FA0002000822C0000000000001DFE57FCD902FA
:103FB000D902000000000000000000000000000026
:103FC0000000000000000000E1D6E060BED9E06023
:103FD00000000000000000000000000000000000E1
:103FE0002000832C000000000000FDFD38FCD902F9
:103FF000D9020000000000000000000000000000E6
:10400000000000000000000041F6E060FFF8E06002
:1040100000000000000000000000000000000000A0
:104020002000842C000000000000FDFDF1FBD902FF
:10403000D9020000000000000000000000000000A5
:104040000000000000000000E553E160A456E160BC
:104050000000000000000000000000000000000060
:104060002000852C000000000000FDFDC7FBD902E8
:10407000D902000000000000000000000000000065
:1040800000000000000000006892E1604595E160DA
:104090000000000000000000000000000000000020
:1040A0002000862C000000000000FDFD8CFBD902E2
:1040B000D902000000000000000000000000000025
:1040C0000000000000000000EEEFE160CBF2E160D4
:1040D00000000000000000000000000000000000E0
:1040E0002000872C000000000000FDFD64FBD902C9
:1040F000D9020000000000000000000000000000E5
:104100000000000000000000D04DE2608E50E26030
:10411000000000000000000000000000000000009F
:104120002000882C000000000000FDFD27FBD902C4
:10413000D9020000000000000000000000000000A4
:10414000000000000000000093ABE26070AEE2608F
:10415000000000000000000000000000000000005F
:104160002000892C000000000000FDFD03FBD902A7
:10417000D902000000000000000000000000000064
:10418000000000000000000034EAE260F3ECE260AE
:10419000000000000000000000000000000000001F
:1041A00020008A2C000000000000FDFDC6FAD902A4
:1041B000D902000000000000000000000000000024
:1041C00000000000000000005B86E3601A89E360E5
:1041D00000000000000000000000000000000000DF
:1041E00020008B2C000000000000FDFD6BFBD902BD
:1041F000D9020000000000000000000000000000E4
:1042000000000000000000000E5BE560CC5DE56092
:10421000000000000000000000000000000000009E
:1042200020008C2C000000000000FDFD80FBD90266
:10423000D9020000000000000000000000000000A3
:1042400000000000000000004F7AE5602C7DE56072
:10425000000000000000000000000000000000005E
:1042600020008D2C000000000000FDFDCCFBD902D9
:10427000D902000000000000000000000000000063
:1042800000000000000000003655E660F457E660CC
:10429000000000000000000000000000000000001E
:1042A00020008E2C000000000000FDFDE2FBD90282
:1042B000D902000000000000000000000000000023
:1042C00000000000000000007774E6605477E660AC
:1042D00000000000000000000000000000000000DE
:1042E00020008F2C200000000000FDFD30FCD902D2
:1042F000D9020000000000000000000000000000E3
:104300000000000000000000A6ACE76065AFE760B9
:10431000000000000000000000000000000000009D
:104320002000902C000000000000FDFD30FCD902B0
:10433000D9020000000000000000000000000000A2
:1043400000000000000000003BDFE960F9E1E960E7
:10435000000000000000000000000000000000005D
:104360002000912C000000000000FDFD4EFCD90251
:10437000D902000000000000000000000000000062
:1043800000000000000000005E5CEA601C5FEA6064
:10439000000000000000000000000000000000001D
:1043A0002000922C000000000000FDFDC5FCD90299
:1043B000D902000000000000000000000000000022
:1043C0000000000000000000E09AEA609F9DEA60A3
:1043D00000000000000000000000000000000000DD
:1043E0002000932C000000000000FDFD0DFDD9020F
:1043F000D9020000000000000000000000000000E2
:10440000000000000000000021BAEA60E0BCEA60A1
:10441000000000000000000000000000000000009C
:104420002000942C000000000000FDFD5CFDD9027E
:10443000D9020000000000000000000000000000A1
:10444000000000000000000081D9EA605EDCEA6044
:10445000000000000000000000000000000000005C
:104460002000952C000000000000FDFDA5FDD902F4
:10447000D902000000000000000000000000000061
:104480000000000000000000A4F8EA6081FBEA6080
:10449000000000000000000000000000000000001C
:1044A0002000962C000000000000FDFDF4FDD90264
:1044B000D902000000000000000000000000000021
:1044C0000000000000000000C617EB60851AEB60DA
:1044D00000000000000000000000000000000000DC
:1044E0002000972C000000000000FDFD49FED902CD
:1044F000D9020000000000000000000000000000E1
:1045000000000000000000004537EB60033AEB605C
:10451000000000000000000000000000000000009B
:104520002000982C000000000000FDFD8CFED90248
:10453000D9020000000000000000000000000000A0
:1045400000000000000000004956EB600759EB60D6
:10455000000000000000000000000000000000005B
:104560002000992C000000000000FDFDC2FED902D1
:10457000D902000000000000000000000000000060
:104580000000000000000000C775EB60A478EB603D
:10459000000000000000000000000000000000001B
:1045A00020009A2C000000000000FDFDEDFED90265
:1045B000D902000000000000000000000000000020
:1045C0000000000000000000CB94EB60A897EB60B7
:1045D00000000000000000000000000000000000DB
:1045E00020009B2C000000000000FDFD26FFD902EA
:1045F000D9020000000000000000000000000000E0
:1046000000000000000000004DD3EB600CD6EB6012
:10461000000000000000000000000000000000009A
:1046200020009C2C000000000000FDFD5AFFD90274
:10463000D90200000000000000000000000000009F
:1046400000000000000000002F31EC60ED33EC6052
:10465000000000000000000000000000000000005A
:1046600020009D2C000000000000FDFDC2FED902CC
:10467000D90200000000000000000000000000005F
:1046800000000000000000000DE3F860EAE5F860BB
:10469000000000000000000000000000000000001A
:1046A00020009E2C000000000000FDFDB9FED90294
:1046B000D90200000000000000000000000000001F
:1046C00000000000000000006C02F9602B05F9609A
:1046D00000000000000000000000000000000000DA
:1046E00020009F2C000000000000FDFCB9FED90254
:1046F000D9020000000000000000000000000000DF
:10470000000000000000000016DDF960D4DFF96051
:104710000000000000000000000000000000000099
:104720002000A02C0000000000007EFBB9FED90292
:10473000D90200000000000000000000000000009E
:10474000000000000000000057FCF96034FFF96031
:104750000000000000000000000000000000000059
:104760002000A12C000000000000E2F689FFD90221
:10477000D90200000000000000000000000000005E
:104780000000000000000000981BFA60571EFA604D
:104790000000000000000000000000000000000019
:1047A0002000A22C0000000000000EC4C600D902A8
:1047B000D90200000000000000000000000000001E
:1047C0000000000000000000D93AFA60983DFA604D
:1047D00000000000000000000000000000000000D9
:1047E0002000A32C0000000000006D965C02D9029E
:1047F000D9020000000000000000000000000000DE
:104800000000000000000000395AFA60165DFA60EE
:104810000000000000000000000000000000000098
:104820002000A42C00000000000000804704D902F2
:10483000D90200000000000000000000000000009D
:1048400000000000000000005C79FA60397CFA602A
:104850000000000000000000000000000000000058
:104860002000A52C0000000000000080AF05D90248
:10487000D90200000000000000000000000000005D
:1048800000000000000000009D98FA607A9BFA602A
:104890000000000000000000000000000000000018
:1048A0002000A62C00000000000000809706D9021E
:1048B000D90200000000000000000000000000001D
:1048C0000000000000000000DEB7FA60BBBAFA602A
:1048D00000000000000000000000000000000000D8
:1048E0002000A72C0000000000000080D206D902A2
:1048F000D9020000000000000000000000000000DD
:1049000000000000000000001FD7FA60DDD9FA6047
:104910000000000000000000000000000000000097
:104920002000A82C0000000000000080A405D9028F
:10493000D90200000000000000000000000000009C
:104940000000000000000000A115FB606018FB6083
:104950000000000000000000000000000000000057
:104960002000A92C0000000000000080E604D9020D
:10497000D90200000000000000000000000000005C
:104980000000000000000000E234FB60A137FB6083
:104990000000000000000000000000000000000017
:1049A0002000AA2C00000000000000804804D9026A
:1049B000D90200000000000000000000000000001C
:1049C00000000000000000004254FB600057FB6044
:1049D00000000000000000000000000000000000D7
:1049E0002000AB2C0000000000000080C403D902AE
:1049F000D9020000000000000000000000000000DC
:104A000000000000000000006573FB604276FB6060
:104A10000000000000000000000000000000000096
:104A20002000AC2C00000000000000805B03D902D5
:104A3000D90200000000000000000000000000009B
:104A40000000000000000000C492FB608395FB6042
:104A50000000000000000000000000000000000056
:104A60002000AD2C00000000000000800703D902E8
:104A7000D90200000000000000000000000000005B
:104A8000000000000000000006B2FB60E2B4FB6022
:104A90000000000000000000000000000000000016
:104AA0002000AE2C0000000000000080BE02D902F1
:104AB000D90200000000000000000000000000001B
:104AC000000000000000000047D1FB6024D4FB6020
:104AD00000000000000000000000000000000000D6
:104AE0002000AF2C00000000000000807902D902F5
:104AF000D9020000000000000000000000000000DB
:104B000000000000000000004BF0FB6009F3FB60B8
:104B10000000000000000000000000000000000095
:104B20002000B02C0000000000000080E901D90244
:104B3000D90200000000000000000000000000009A
:104B400000000000000000008C0FFC606912FC6097
:104B50000000000000000000000000000000000055
:104B60002000B12C00000000000000807101D9027B
:104B7000D90200000000000000000000000000005A
:104B80000000000000000000CD2EFC60AA31FC6097
:104B90000000000000000000000000000000000015
:104BA0002000B22C00000000000000800B01D902A0
:104BB000D90200000000000000000000000000001A
:104BC00000000000000000002D4EFC60EB50FC6077
:104BD00000000000000000000000000000000000D5
:104BE0002000B32C0000000000000080DA00D90291
:104BF000D9020000000000000000000000000000DA
:104C000000000000000000008C6DFC604B70FC6038
:104C10000000000000000000000000000000000094
:104C20002000B42C0000000000004E81DA00D90200
:104C3000D902000000000000000000000000000099
:104C40000000000000000000CD8CFC60AA8FFC601A
:104C50000000000000000000000000000000000054
:104C60002000B52C000000000000529BD601D902A4
:104C7000D902000000000000000000000000000059
:104C80000000000000000000D2ABFC60ECAEFC6055
:104C90000000000000000000000000000000000014
:104CA0002000B62C00000000000054A0FC02D90235
:104CB000D902000000000000000000000000000019
:104CC000000000000000000013CBFC60D1CDFC60B0
:104CD00000000000000000000000000000000000D4
:104CE0002000B72C0000000000003CCE5504D90283
:104CF000D9020000000000000000000000000000D9
:104D0000000000000000000054EAFC6012EDFC60AE
:104D10000000000000000000000000000000000093
:104D20002000B82C0000000000004CD32305D9025D
:104D3000D902000000000000000000000000000098
:104D400000000000000000009509FD60720CFD608D
:104D50000000000000000000000000000000000053
:104D60002000B92C00000000000079FB6E05D9027C
:104D7000D902000000000000000000000000000058
:104D80000000000000000000D628FD60D22BFD606E
:104D90000000000000000000000000000000000013
:104DA0002000BA2C00000000000084FBA405D902FA
:104DB000D902000000000000000000000000000018
:104DC00000000000000000005448FD60134BFD602F
:104DD00000000000000000000000000000000000D3
:104DE0002000BB2C00000000000084FBDB05D90282
:104DF000D9020000000000000000000000000000D8
:104E000000000000000000005867FD60356AFD608A
:104E10000000000000000000000000000000000092
:104E20002000BC2C00000000000084FB1F06D902FB
:104E3000D902000000000000000000000000000097
:104E40000000000000000000F9A5FD60D6A8FD608C
:104E50000000000000000000000000000000000052
:104E60002000BD2C00000000000084FB4006D90299
:104E7000D902000000000000000000000000000057
:104E800000000000000000005DE4FD601BE7FD6025
:104E90000000000000000000000000000000000012
:104EA0002000BE2C000000000000A9FC4006D90232
:104EB000D902000000000000000000000000000017
:104EC0000000000000000000E49FFE60C1A2FE6040
:104ED00000000000000000000000000000000000D2
:104EE0002000BF2C000000000000A1FD4006D902F8
:104EF000D9020000000000000000000000000000D7
:104F0000000000000000000043BFFE6002C2FE601F
:104F10000000000000000000000000000000000091
:104F20002000C02C00000000000084FE4006D902D2
:104F3000D902000000000000000000000000000096
:104F4000000000000000000048DEFE6024E1FE607A
:104F50000000000000000000000000000000000051
:104F60002000C12C0000000000003FFF4006D902D5
:104F7000D902000000000000000000000000000056
:104F80000000000000000000A7FDFE608400FF603C
:104F90000000000000000000000000000000000011
:104FA0002000C22C000000000000DBFF4006D902F8
:104FB000D902000000000000000000000000000016
:104FC0000000000000000000E81CFF605E20FF60A1
:104FD00000000000000000000000000000000000D1
:104FE0002000C32C00000000000051004006D90240
:104FF000D9020000000000000000000000000000D6
:105000000000000000000000483CFF60253FFF60FA
:105010000000000000000000000000000000000090
:105020002000C42C000000000000AF00BB05D90226
:10503000D902000000000000000000000000000095
:1050400000000000000000006B5BFF60485EFF6036
:105050000000000000000000000000000000000050
:105060002000C52C0000000000000001B605D90298
:10507000D902000000000000000000000000000055
:1050800000000000000000008D7AFF60897DFF6055
:105090000000000000000000000000000000000010
:1050A0002000C62C0000000000004101B605D90216
:1050B000D902000000000000000000000000000015
:1050C0000000000000000000ED99FF60AB9CFF6055
:1050D00000000000000000000000000000000000D0
:1050E0002000C72C0000000000007501B605D902A1
:1050F000D9020000000000000000000000000000D5
:1051000000000000000000000FB9FF60ECBBFF6072
:10511000000000000000000000000000000000008F
:105120002000C82C000000000000C101B605D90213
:10513000D902000000000000000000000000000094
:105140000000000000000000B0F7FF606FFAFF6091
:10515000000000000000000000000000000000004F
:105160002000C92C000000000000DC01B605D902B7
:10517000D902000000000000000000000000000054
:105180000000000000000000F1160061CE1900616F
:10519000000000000000000000000000000000000F
:1051A0002000CA2C00000000000025022A05D902B8
:1051B000D902000000000000000000000000000014
:1051C0000000000000000000FB100161B913016144
:1051D00000000000000000000000000000000000CF
:1051E0002000CB2C0000000000002502E704D902BB
:1051F000D9020000000000000000000000000000D4
:1052000000000000000000001D300161FA32016161
:10521000000000000000000000000000000000008E
:105220002000CC2C00000000000025029904D902C7
:10523000D902000000000000000000000000000093
:1052400000000000000000007D4F01615A52016122
:10525000000000000000000000000000000000004E
:105260002000CD2C00000000000025024804D902D7
:10527000D902000000000000000000000000000053
:105280000000000000000000BE6E01619B71016122
:10529000000000000000000000000000000000000E
:1052A0002000CE2C0000000000002502F603D902E9
:1052B000D902000000000000000000000000000013
:1052C0000000000000000000C28D01619F9001619C
:1052D00000000000000000000000000000000000CE
:1052E0002000CF2C0000000000002502AE03D902F0
:1052F000D9020000000000000000000000000000D3
:10530000000000000000000022AD0161FFAF01615C
:10531000000000000000000000000000000000008D
:105320002000D02C00000000000025027A03D902E2
:10533000D902000000000000000000000000000092
:10534000000000000000000063CC016121CF01617A
:10535000000000000000000000000000000000004D
:105360002000D12C00000000000025022403D902F7
:10537000D902000000000000000000000000000052
:105380000000000000000000040B0261E10D02615A
:10539000000000000000000000000000000000000D
:1053A0002000D22C00000000000025020003D902DA
:1053B000D902000000000000000000000000000012
:1053C0000000000000000000452A0261222D026159
:1053D00000000000000000000000000000000000CD
:1053E0002000D32C0000000000002502B402D902E6
:1053F000D9020000000000000000000000000000D2
:105400000000000000000000AD8702618A8A02618E
:10541000000000000000000000000000000000008C
:105420002000D42C00000000000025029702D902C1
:10543000D902000000000000000000000000000091
:1054400000000000000000006CC602612AC9026171
:10545000000000000000000000000000000000004C
:105460002000D52C00000000000025024902D902CE
:10547000D902000000000000000000000000000051
:10548000000000000000000079DF036156E20361C4
:10549000000000000000000000000000000000000C
:1054A0002000D62C00000000000025023702D9029F
:1054B000D902000000000000000000000000000011
:1054C00000000000000000001A1E0461D8200461E2
:1054D00000000000000000000000000000000000CC
:1054E0002000D72C0000000000002502E901D902AD
:1054F000D9020000000000000000000000000000D1
:10550000000000000000000060BA04611EBD0461DC
:10551000000000000000000000000000000000008B
:105520002000D82C0000000000002502D501D9027F
:10553000D902000000000000000000000000000090
:105540000000000000000000A1D904615FDC0461DC
:10555000000000000000000000000000000000004B
:105560002000D92C00000000000025028901D9028A
:10557000D902000000000000000000000000000050
:105580000000000000000000EF110661CC1406616D
:10559000000000000000000000000000000000000B
:1055A0002000DA2C00000000000025027501D9025D
:1055B000D902000000000000000000000000000010
:1055C0000000000000000000FD880761BB8B076140
:1055D00000000000000000000000000000000000CB
:1055E0002000DB2C00000000000025021B01D90276
:1055F000D9020000000000000000000000000000D0
:105600000000000000000000B4DA096191DD0961CA
:10561000000000000000000000000000000000008A
:105620002000DC2C00000000000025020801D90247
:10563000D90200000000000000000000000000008F
:10564000000000000000000013FA0961F0FC09618D
:10565000000000000000000000000000000000004A
:105660002000DD2C0000000000002502BA00D90255
:10567000D90200000000000000000000000000004F
:105680000000000000000000D7570A61955A0A6127
:10569000000000000000000000000000000000000A
:1056A0002000DE2C00000000000052029200D9020F
:1056B000D90200000000000000000000000000000F
:1056C000000000000000000018770A61F5790A6107
:1056D00000000000000000000000000000000000CA
:1056E0002000DF2C00000000000052025200D9020E
:1056F000D9020000000000000000000000000000CF
:105700000000000000000000B9B50A6177B80A6126
:105710000000000000000000000000000000000089
:105720002000E02C000000000000BF005200D90261
:10573000D90200000000000000000000000000008E
:1057400000000000000000001DF40A61FAF60A6182
:105750000000000000000000000000000000000049
:105760002000E12C000000000000F9FD0401D90236
:10577000D90200000000000000000000000000004E
:1057800000000000000000005E130B613B160B617F
:105790000000000000000000000000000000000009
:1057A0002000E22C00000000000067D75C02D90254
:1057B000D90200000000000000000000000000000E
:1057C0000000000000000000BD320B619A350B6143
:1057D00000000000000000000000000000000000C9
:1057E0002000E32C00000000000083AAC404D902BA
:1057F000D9020000000000000000000000000000CE
:105800000000000000000000FF510B61DB540B6141
:105810000000000000000000000000000000000088
:105820002000E42C0000000000000080E207D90204
:10583000D90200000000000000000000000000008D
:10584000000000000000000021710B61E0730B619B
:105850000000000000000000000000000000000048
:105860002000E52C0000000000000080550AD9024D
:10587000D90200000000000000000000000000004D
:10588000000000000000000044900B6102930B61D7
:105890000000000000000000000000000000000008
:1058A0002000E62C0000000000000080F30BD9026D
:1058B000D90200000000000000000000000000000D
:1058C0000000000000000000C2AF0B619FB20B613E
:1058D00000000000000000000000000000000000C8
:1058E0002000E72C0000000000000080BF0CD9025F
:1058F000D9020000000000000000000000000000CD
:105900000000000000000000E5CE0B61A3D10B6198
:105910000000000000000000000000000000000087
:105920002000E82C0000000000000080FF0CD902DD
:10593000D90200000000000000000000000000008C
:10594000000000000000000007EE0B61E4F00B61B6
:105950000000000000000000000000000000000047
:105960002000E92C0000000000000080500CD9024B
:10597000D90200000000000000000000000000004C
:105980000000000000000000084C0C61C64E0C61D5
:105990000000000000000000000000000000000007
:1059A0002000EA2C0000000000000080170CD90243
:1059B000D90200000000000000000000000000000C
:1059C0000000000000000000496B0C61076E0C61D4
:1059D00000000000000000000000000000000000C7
:1059E0002000EB2C0000000000000080E40BD90236
:1059F000D9020000000000000000000000000000CC
:105A000000000000000000004D8A0C612A8D0C612E
:105A10000000000000000000000000000000000086
:105A20002000EC2C0000000000000080940BD90244
:105A3000D90200000000000000000000000000008B
:105A40000000000000000000CFC80C618ECB0C618C
:105A50000000000000000000000000000000000046
:105A60002000ED2C00000000000000804E0BD90249
:105A7000D90200000000000000000000000000004B
:105A8000000000000000000010E80C61CFEA0C618B
:105A90000000000000000000000000000000000006
:105AA0002000EE2C0000000000000080DF0AD90278
:105AB000D90200000000000000000000000000000B
:105AC000000000000000000051070D61100A0D6188
